{
  "_format": "hh-sol-artifact-1",
  "contractName": "CycleChain",
  "sourceName": "contracts/santosh.sol",
  "abi": [
    {
      "inputs": [],
      "stateMutability": "nonpayable",
      "type": "constructor"
    },
    {
      "anonymous": false,
      "inputs": [
        {
          "indexed": true,
          "internalType": "address",
          "name": "owner",
          "type": "address"
        },
        {
          "indexed": true,
          "internalType": "address",
          "name": "approved",
          "type": "address"
        },
        {
          "indexed": true,
          "internalType": "uint256",
          "name": "tokenId",
          "type": "uint256"
        }
      ],
      "name": "Approval",
      "type": "event"
    },
    {
      "anonymous": false,
      "inputs": [
        {
          "indexed": true,
          "internalType": "address",
          "name": "owner",
          "type": "address"
        },
        {
          "indexed": true,
          "internalType": "address",
          "name": "operator",
          "type": "address"
        },
        {
          "indexed": false,
          "internalType": "bool",
          "name": "approved",
          "type": "bool"
        }
      ],
      "name": "ApprovalForAll",
      "type": "event"
    },
    {
      "anonymous": false,
      "inputs": [
        {
          "indexed": true,
          "internalType": "uint256",
          "name": "tokenId",
          "type": "uint256"
        },
        {
          "indexed": false,
          "internalType": "string",
          "name": "frameNumber",
          "type": "string"
        },
        {
          "indexed": false,
          "internalType": "string",
          "name": "manufacturer",
          "type": "string"
        }
      ],
      "name": "BicycleRegistered",
      "type": "event"
    },
    {
      "anonymous": false,
      "inputs": [
        {
          "indexed": true,
          "internalType": "uint256",
          "name": "tokenId",
          "type": "uint256"
        },
        {
          "indexed": false,
          "internalType": "bool",
          "name": "authenticated",
          "type": "bool"
        },
        {
          "indexed": false,
          "internalType": "string",
          "name": "location",
          "type": "string"
        }
      ],
      "name": "BicycleVerified",
      "type": "event"
    },
    {
      "anonymous": false,
      "inputs": [
        {
          "indexed": true,
          "internalType": "uint256",
          "name": "tokenId",
          "type": "uint256"
        },
        {
          "indexed": false,
          "internalType": "string",
          "name": "componentType",
          "type": "string"
        }
      ],
      "name": "ComponentChanged",
      "type": "event"
    },
    {
      "anonymous": false,
      "inputs": [
        {
          "indexed": true,
          "internalType": "uint256",
          "name": "tokenId",
          "type": "uint256"
        },
        {
          "indexed": false,
          "internalType": "string",
          "name": "serviceDescription",
          "type": "string"
        }
      ],
      "name": "MaintenancePerformed",
      "type": "event"
    },
    {
      "anonymous": false,
      "inputs": [
        {
          "indexed": true,
          "internalType": "address",
          "name": "manufacturer",
          "type": "address"
        },
        {
          "indexed": false,
          "internalType": "bool",
          "name": "status",
          "type": "bool"
        }
      ],
      "name": "ManufacturerStatusChanged",
      "type": "event"
    },
    {
      "anonymous": false,
      "inputs": [
        {
          "indexed": true,
          "internalType": "address",
          "name": "previousOwner",
          "type": "address"
        },
        {
          "indexed": true,
          "internalType": "address",
          "name": "newOwner",
          "type": "address"
        }
      ],
      "name": "OwnershipTransferred",
      "type": "event"
    },
    {
      "anonymous": false,
      "inputs": [
        {
          "indexed": true,
          "internalType": "uint256",
          "name": "tokenId",
          "type": "uint256"
        },
        {
          "indexed": false,
          "internalType": "bytes32",
          "name": "newProof",
          "type": "bytes32"
        }
      ],
      "name": "ProofUpdated",
      "type": "event"
    },
    {
      "anonymous": false,
      "inputs": [
        {
          "indexed": true,
          "internalType": "address",
          "name": "provider",
          "type": "address"
        },
        {
          "indexed": false,
          "internalType": "bool",
          "name": "status",
          "type": "bool"
        }
      ],
      "name": "ServiceProviderStatusChanged",
      "type": "event"
    },
    {
      "anonymous": false,
      "inputs": [
        {
          "indexed": true,
          "internalType": "address",
          "name": "from",
          "type": "address"
        },
        {
          "indexed": true,
          "internalType": "address",
          "name": "to",
          "type": "address"
        },
        {
          "indexed": true,
          "internalType": "uint256",
          "name": "tokenId",
          "type": "uint256"
        }
      ],
      "name": "Transfer",
      "type": "event"
    },
    {
      "anonymous": false,
      "inputs": [
        {
          "indexed": true,
          "internalType": "address",
          "name": "verifier",
          "type": "address"
        },
        {
          "indexed": false,
          "internalType": "bool",
          "name": "status",
          "type": "bool"
        }
      ],
      "name": "VerifierStatusChanged",
      "type": "event"
    },
    {
      "inputs": [
        {
          "internalType": "uint256",
          "name": "tokenId",
          "type": "uint256"
        },
        {
          "internalType": "string",
          "name": "componentType",
          "type": "string"
        },
        {
          "internalType": "string",
          "name": "newComponentDetails",
          "type": "string"
        }
      ],
      "name": "addComponentChange",
      "outputs": [],
      "stateMutability": "nonpayable",
      "type": "function"
    },
    {
      "inputs": [
        {
          "internalType": "uint256",
          "name": "tokenId",
          "type": "uint256"
        },
        {
          "internalType": "string",
          "name": "serviceDescription",
          "type": "string"
        },
        {
          "internalType": "string",
          "name": "notes",
          "type": "string"
        }
      ],
      "name": "addMaintenanceRecord",
      "outputs": [],
      "stateMutability": "nonpayable",
      "type": "function"
    },
    {
      "inputs": [
        {
          "internalType": "address",
          "name": "manufacturer",
          "type": "address"
        }
      ],
      "name": "addManufacturer",
      "outputs": [],
      "stateMutability": "nonpayable",
      "type": "function"
    },
    {
      "inputs": [
        {
          "internalType": "address",
          "name": "provider",
          "type": "address"
        }
      ],
      "name": "addServiceProvider",
      "outputs": [],
      "stateMutability": "nonpayable",
      "type": "function"
    },
    {
      "inputs": [
        {
          "internalType": "address",
          "name": "verifier",
          "type": "address"
        }
      ],
      "name": "addVerifier",
      "outputs": [],
      "stateMutability": "nonpayable",
      "type": "function"
    },
    {
      "inputs": [
        {
          "internalType": "address",
          "name": "to",
          "type": "address"
        },
        {
          "internalType": "uint256",
          "name": "tokenId",
          "type": "uint256"
        }
      ],
      "name": "approve",
      "outputs": [],
      "stateMutability": "nonpayable",
      "type": "function"
    },
    {
      "inputs": [
        {
          "internalType": "address",
          "name": "",
          "type": "address"
        }
      ],
      "name": "authorizedManufacturers",
      "outputs": [
        {
          "internalType": "bool",
          "name": "",
          "type": "bool"
        }
      ],
      "stateMutability": "view",
      "type": "function"
    },
    {
      "inputs": [
        {
          "internalType": "address",
          "name": "",
          "type": "address"
        }
      ],
      "name": "authorizedServiceProviders",
      "outputs": [
        {
          "internalType": "bool",
          "name": "",
          "type": "bool"
        }
      ],
      "stateMutability": "view",
      "type": "function"
    },
    {
      "inputs": [
        {
          "internalType": "address",
          "name": "",
          "type": "address"
        }
      ],
      "name": "authorizedVerifiers",
      "outputs": [
        {
          "internalType": "bool",
          "name": "",
          "type": "bool"
        }
      ],
      "stateMutability": "view",
      "type": "function"
    },
    {
      "inputs": [
        {
          "internalType": "address",
          "name": "owner",
          "type": "address"
        }
      ],
      "name": "balanceOf",
      "outputs": [
        {
          "internalType": "uint256",
          "name": "",
          "type": "uint256"
        }
      ],
      "stateMutability": "view",
      "type": "function"
    },
    {
      "inputs": [
        {
          "internalType": "uint256",
          "name": "",
          "type": "uint256"
        }
      ],
      "name": "bicycles",
      "outputs": [
        {
          "internalType": "string",
          "name": "frameNumber",
          "type": "string"
        },
        {
          "internalType": "string",
          "name": "manufacturer",
          "type": "string"
        },
        {
          "internalType": "string",
          "name": "model",
          "type": "string"
        },
        {
          "internalType": "uint256",
          "name": "manufactureDate",
          "type": "uint256"
        },
        {
          "internalType": "bool",
          "name": "isAuthentic",
          "type": "bool"
        },
        {
          "internalType": "bytes32",
          "name": "cryptographicProof",
          "type": "bytes32"
        },
        {
          "internalType": "uint256",
          "name": "maintenanceCount",
          "type": "uint256"
        },
        {
          "internalType": "uint256",
          "name": "verificationCount",
          "type": "uint256"
        },
        {
          "internalType": "uint256",
          "name": "componentCount",
          "type": "uint256"
        }
      ],
      "stateMutability": "view",
      "type": "function"
    },
    {
      "inputs": [
        {
          "internalType": "uint256",
          "name": "",
          "type": "uint256"
        },
        {
          "internalType": "uint256",
          "name": "",
          "type": "uint256"
        }
      ],
      "name": "componentChanges",
      "outputs": [
        {
          "internalType": "string",
          "name": "componentType",
          "type": "string"
        },
        {
          "internalType": "string",
          "name": "newComponentDetails",
          "type": "string"
        },
        {
          "internalType": "uint256",
          "name": "date",
          "type": "uint256"
        },
        {
          "internalType": "string",
          "name": "installedBy",
          "type": "string"
        }
      ],
      "stateMutability": "view",
      "type": "function"
    },
    {
      "inputs": [
        {
          "internalType": "string",
          "name": "",
          "type": "string"
        }
      ],
      "name": "frameNumberToToken",
      "outputs": [
        {
          "internalType": "uint256",
          "name": "",
          "type": "uint256"
        }
      ],
      "stateMutability": "view",
      "type": "function"
    },
    {
      "inputs": [
        {
          "internalType": "uint256",
          "name": "tokenId",
          "type": "uint256"
        }
      ],
      "name": "getApproved",
      "outputs": [
        {
          "internalType": "address",
          "name": "",
          "type": "address"
        }
      ],
      "stateMutability": "view",
      "type": "function"
    },
    {
      "inputs": [
        {
          "internalType": "uint256",
          "name": "tokenId",
          "type": "uint256"
        }
      ],
      "name": "getBicycleAdditionalDetails",
      "outputs": [
        {
          "internalType": "bool",
          "name": "isAuthentic",
          "type": "bool"
        },
        {
          "internalType": "bytes32",
          "name": "proof",
          "type": "bytes32"
        },
        {
          "internalType": "uint256",
          "name": "maintenanceCount",
          "type": "uint256"
        },
        {
          "internalType": "uint256",
          "name": "verificationCount",
          "type": "uint256"
        },
        {
          "internalType": "uint256",
          "name": "componentCount",
          "type": "uint256"
        }
      ],
      "stateMutability": "view",
      "type": "function"
    },
    {
      "inputs": [
        {
          "internalType": "uint256",
          "name": "tokenId",
          "type": "uint256"
        }
      ],
      "name": "getBicycleBasicDetails",
      "outputs": [
        {
          "internalType": "string",
          "name": "frameNumber",
          "type": "string"
        },
        {
          "internalType": "string",
          "name": "manufacturer",
          "type": "string"
        },
        {
          "internalType": "string",
          "name": "model",
          "type": "string"
        },
        {
          "internalType": "uint256",
          "name": "manufactureDate",
          "type": "uint256"
        },
        {
          "internalType": "address",
          "name": "owner",
          "type": "address"
        }
      ],
      "stateMutability": "view",
      "type": "function"
    },
    {
      "inputs": [
        {
          "internalType": "uint256",
          "name": "tokenId",
          "type": "uint256"
        }
      ],
      "name": "getComponentHistory",
      "outputs": [
        {
          "components": [
            {
              "internalType": "string",
              "name": "componentType",
              "type": "string"
            },
            {
              "internalType": "string",
              "name": "newComponentDetails",
              "type": "string"
            },
            {
              "internalType": "uint256",
              "name": "date",
              "type": "uint256"
            },
            {
              "internalType": "string",
              "name": "installedBy",
              "type": "string"
            }
          ],
          "internalType": "struct CycleChain.ComponentChange[]",
          "name": "",
          "type": "tuple[]"
        }
      ],
      "stateMutability": "view",
      "type": "function"
    },
    {
      "inputs": [
        {
          "internalType": "uint256",
          "name": "tokenId",
          "type": "uint256"
        }
      ],
      "name": "getMaintenanceHistory",
      "outputs": [
        {
          "components": [
            {
              "internalType": "string",
              "name": "serviceDescription",
              "type": "string"
            },
            {
              "internalType": "uint256",
              "name": "date",
              "type": "uint256"
            },
            {
              "internalType": "string",
              "name": "serviceProvider",
              "type": "string"
            },
            {
              "internalType": "string",
              "name": "notes",
              "type": "string"
            },
            {
              "internalType": "bytes32",
              "name": "serviceProof",
              "type": "bytes32"
            }
          ],
          "internalType": "struct CycleChain.MaintenanceRecord[]",
          "name": "",
          "type": "tuple[]"
        }
      ],
      "stateMutability": "view",
      "type": "function"
    },
    {
      "inputs": [
        {
          "internalType": "address",
          "name": "owner",
          "type": "address"
        }
      ],
      "name": "getOwnedBicycles",
      "outputs": [
        {
          "internalType": "uint256[]",
          "name": "tokenIds",
          "type": "uint256[]"
        },
        {
          "components": [
            {
              "internalType": "string",
              "name": "frameNumber",
              "type": "string"
            },
            {
              "internalType": "string",
              "name": "manufacturer",
              "type": "string"
            },
            {
              "internalType": "string",
              "name": "model",
              "type": "string"
            },
            {
              "internalType": "uint256",
              "name": "manufactureDate",
              "type": "uint256"
            },
            {
              "internalType": "bool",
              "name": "isAuthentic",
              "type": "bool"
            },
            {
              "internalType": "bytes32",
              "name": "cryptographicProof",
              "type": "bytes32"
            },
            {
              "internalType": "uint256",
              "name": "maintenanceCount",
              "type": "uint256"
            },
            {
              "internalType": "uint256",
              "name": "verificationCount",
              "type": "uint256"
            },
            {
              "internalType": "uint256",
              "name": "componentCount",
              "type": "uint256"
            }
          ],
          "internalType": "struct CycleChain.Bicycle[]",
          "name": "bicycleDetails",
          "type": "tuple[]"
        }
      ],
      "stateMutability": "view",
      "type": "function"
    },
    {
      "inputs": [
        {
          "internalType": "uint256",
          "name": "tokenId",
          "type": "uint256"
        }
      ],
      "name": "getVerificationHistory",
      "outputs": [
        {
          "components": [
            {
              "internalType": "uint256",
              "name": "date",
              "type": "uint256"
            },
            {
              "internalType": "string",
              "name": "verifier",
              "type": "string"
            },
            {
              "internalType": "string",
              "name": "location",
              "type": "string"
            },
            {
              "internalType": "bool",
              "name": "authenticated",
              "type": "bool"
            },
            {
              "internalType": "string",
              "name": "notes",
              "type": "string"
            }
          ],
          "internalType": "struct CycleChain.VerificationEvent[]",
          "name": "",
          "type": "tuple[]"
        }
      ],
      "stateMutability": "view",
      "type": "function"
    },
    {
      "inputs": [
        {
          "internalType": "address",
          "name": "owner",
          "type": "address"
        },
        {
          "internalType": "address",
          "name": "operator",
          "type": "address"
        }
      ],
      "name": "isApprovedForAll",
      "outputs": [
        {
          "internalType": "bool",
          "name": "",
          "type": "bool"
        }
      ],
      "stateMutability": "view",
      "type": "function"
    },
    {
      "inputs": [
        {
          "internalType": "uint256",
          "name": "",
          "type": "uint256"
        },
        {
          "internalType": "uint256",
          "name": "",
          "type": "uint256"
        }
      ],
      "name": "maintenanceRecords",
      "outputs": [
        {
          "internalType": "string",
          "name": "serviceDescription",
          "type": "string"
        },
        {
          "internalType": "uint256",
          "name": "date",
          "type": "uint256"
        },
        {
          "internalType": "string",
          "name": "serviceProvider",
          "type": "string"
        },
        {
          "internalType": "string",
          "name": "notes",
          "type": "string"
        },
        {
          "internalType": "bytes32",
          "name": "serviceProof",
          "type": "bytes32"
        }
      ],
      "stateMutability": "view",
      "type": "function"
    },
    {
      "inputs": [],
      "name": "name",
      "outputs": [
        {
          "internalType": "string",
          "name": "",
          "type": "string"
        }
      ],
      "stateMutability": "view",
      "type": "function"
    },
    {
      "inputs": [],
      "name": "owner",
      "outputs": [
        {
          "internalType": "address",
          "name": "",
          "type": "address"
        }
      ],
      "stateMutability": "view",
      "type": "function"
    },
    {
      "inputs": [
        {
          "internalType": "uint256",
          "name": "tokenId",
          "type": "uint256"
        }
      ],
      "name": "ownerOf",
      "outputs": [
        {
          "internalType": "address",
          "name": "",
          "type": "address"
        }
      ],
      "stateMutability": "view",
      "type": "function"
    },
    {
      "inputs": [
        {
          "internalType": "string",
          "name": "frameNumber",
          "type": "string"
        },
        {
          "internalType": "string",
          "name": "manufacturer",
          "type": "string"
        },
        {
          "internalType": "string",
          "name": "model",
          "type": "string"
        },
        {
          "internalType": "bytes32",
          "name": "initialProof",
          "type": "bytes32"
        }
      ],
      "name": "registerBicycle",
      "outputs": [
        {
          "internalType": "uint256",
          "name": "",
          "type": "uint256"
        }
      ],
      "stateMutability": "nonpayable",
      "type": "function"
    },
    {
      "inputs": [
        {
          "internalType": "address",
          "name": "manufacturer",
          "type": "address"
        }
      ],
      "name": "removeManufacturer",
      "outputs": [],
      "stateMutability": "nonpayable",
      "type": "function"
    },
    {
      "inputs": [
        {
          "internalType": "address",
          "name": "provider",
          "type": "address"
        }
      ],
      "name": "removeServiceProvider",
      "outputs": [],
      "stateMutability": "nonpayable",
      "type": "function"
    },
    {
      "inputs": [
        {
          "internalType": "address",
          "name": "verifier",
          "type": "address"
        }
      ],
      "name": "removeVerifier",
      "outputs": [],
      "stateMutability": "nonpayable",
      "type": "function"
    },
    {
      "inputs": [],
      "name": "renounceOwnership",
      "outputs": [],
      "stateMutability": "nonpayable",
      "type": "function"
    },
    {
      "inputs": [
        {
          "internalType": "address",
          "name": "from",
          "type": "address"
        },
        {
          "internalType": "address",
          "name": "to",
          "type": "address"
        },
        {
          "internalType": "uint256",
          "name": "tokenId",
          "type": "uint256"
        }
      ],
      "name": "safeTransferFrom",
      "outputs": [],
      "stateMutability": "nonpayable",
      "type": "function"
    },
    {
      "inputs": [
        {
          "internalType": "address",
          "name": "from",
          "type": "address"
        },
        {
          "internalType": "address",
          "name": "to",
          "type": "address"
        },
        {
          "internalType": "uint256",
          "name": "tokenId",
          "type": "uint256"
        },
        {
          "internalType": "bytes",
          "name": "_data",
          "type": "bytes"
        }
      ],
      "name": "safeTransferFrom",
      "outputs": [],
      "stateMutability": "nonpayable",
      "type": "function"
    },
    {
      "inputs": [
        {
          "internalType": "address",
          "name": "operator",
          "type": "address"
        },
        {
          "internalType": "bool",
          "name": "approved",
          "type": "bool"
        }
      ],
      "name": "setApprovalForAll",
      "outputs": [],
      "stateMutability": "nonpayable",
      "type": "function"
    },
    {
      "inputs": [
        {
          "internalType": "bytes4",
          "name": "interfaceId",
          "type": "bytes4"
        }
      ],
      "name": "supportsInterface",
      "outputs": [
        {
          "internalType": "bool",
          "name": "",
          "type": "bool"
        }
      ],
      "stateMutability": "view",
      "type": "function"
    },
    {
      "inputs": [],
      "name": "symbol",
      "outputs": [
        {
          "internalType": "string",
          "name": "",
          "type": "string"
        }
      ],
      "stateMutability": "view",
      "type": "function"
    },
    {
      "inputs": [
        {
          "internalType": "uint256",
          "name": "tokenId",
          "type": "uint256"
        }
      ],
      "name": "tokenURI",
      "outputs": [
        {
          "internalType": "string",
          "name": "",
          "type": "string"
        }
      ],
      "stateMutability": "view",
      "type": "function"
    },
    {
      "inputs": [
        {
          "internalType": "address",
          "name": "from",
          "type": "address"
        },
        {
          "internalType": "address",
          "name": "to",
          "type": "address"
        },
        {
          "internalType": "uint256",
          "name": "tokenId",
          "type": "uint256"
        }
      ],
      "name": "transferFrom",
      "outputs": [],
      "stateMutability": "nonpayable",
      "type": "function"
    },
    {
      "inputs": [
        {
          "internalType": "address",
          "name": "newOwner",
          "type": "address"
        }
      ],
      "name": "transferOwnership",
      "outputs": [],
      "stateMutability": "nonpayable",
      "type": "function"
    },
    {
      "inputs": [
        {
          "internalType": "bytes32",
          "name": "",
          "type": "bytes32"
        }
      ],
      "name": "validProofs",
      "outputs": [
        {
          "internalType": "bool",
          "name": "",
          "type": "bool"
        }
      ],
      "stateMutability": "view",
      "type": "function"
    },
    {
      "inputs": [
        {
          "internalType": "uint256",
          "name": "",
          "type": "uint256"
        },
        {
          "internalType": "uint256",
          "name": "",
          "type": "uint256"
        }
      ],
      "name": "verificationEvents",
      "outputs": [
        {
          "internalType": "uint256",
          "name": "date",
          "type": "uint256"
        },
        {
          "internalType": "string",
          "name": "verifier",
          "type": "string"
        },
        {
          "internalType": "string",
          "name": "location",
          "type": "string"
        },
        {
          "internalType": "bool",
          "name": "authenticated",
          "type": "bool"
        },
        {
          "internalType": "string",
          "name": "notes",
          "type": "string"
        }
      ],
      "stateMutability": "view",
      "type": "function"
    },
    {
      "inputs": [
        {
          "internalType": "uint256",
          "name": "tokenId",
          "type": "uint256"
        },
        {
          "internalType": "bytes32",
          "name": "proof",
          "type": "bytes32"
        },
        {
          "internalType": "string",
          "name": "location",
          "type": "string"
        },
        {
          "internalType": "string",
          "name": "notes",
          "type": "string"
        }
      ],
      "name": "verifyBicycle",
      "outputs": [],
      "stateMutability": "nonpayable",
      "type": "function"
    }
  ],
  "bytecode": "0x60806040523480156200001157600080fd5b506040518060400160405280600981526020016810de58db1950d95c9d60ba1b815250604051806040016040528060058152602001644359434c4560d81b815250816000908162000063919062000190565b50600162000072828262000190565b5050506200008f620000896200009560201b60201c565b62000099565b6200025c565b3390565b600680546001600160a01b038381166001600160a01b0319831681179093556040519116919082907f8be0079c531659141344cd1fd0a4f28419497f9722a3daafe3b4186f6b6457e090600090a35050565b634e487b7160e01b600052604160045260246000fd5b600181811c908216806200011657607f821691505b6020821081036200013757634e487b7160e01b600052602260045260246000fd5b50919050565b601f8211156200018b57600081815260208120601f850160051c81016020861015620001665750805b601f850160051c820191505b81811015620001875782815560010162000172565b5050505b505050565b81516001600160401b03811115620001ac57620001ac620000eb565b620001c481620001bd845462000101565b846200013d565b602080601f831160018114620001fc5760008415620001e35750858301515b600019600386901b1c1916600185901b17855562000187565b600085815260208120601f198616915b828110156200022d578886015182559484019460019091019084016200020c565b50858210156200024c5787850151600019600388901b60f8161c191681555b5050505050600190811b01905550565b6140c3806200026c6000396000f3fe608060405234801561001057600080fd5b50600436106102535760003560e01c806365b79c85116101465780639f6291f4116100c3578063ca2dfd0a11610087578063ca2dfd0a14610609578063ddc367b51461061c578063e3f431721461063c578063e985e9c514610660578063f2fde38b14610673578063f9f5c7391461068657600080fd5b80639f6291f414610589578063a22cb465146105ad578063b88d4fde146105c0578063be807370146105d3578063c87b56dd146105f657600080fd5b80637391150b1161010a5780637391150b146105275780638da5cb5b1461053a5780639000b3d61461054b57806395d89b411461055e5780639a8917161461056657600080fd5b806365b79c85146104b85780636a75323f146104d857806370a08231146104eb578063715018a6146104fe578063722bde251461050657600080fd5b806324b04245116101d45780634af85ad9116101985780634af85ad9146103f95780634f370f11146104365780635768b39f1461046f5780635f8a5afa146104925780636352211e146104a557600080fd5b806324b042451461037d578063371a1025146103a057806340523475146103b357806342842e0e146103d3578063444d0df1146103e657600080fd5b8063095ea7b31161021b578063095ea7b3146102f85780630c5131b81461030b57806310fa1c1f1461032f57806320b6f13d1461034257806323b872dd1461036a57600080fd5b806301ffc9a71461025857806306fdde0314610280578063070a854014610295578063075d7a6f146102b8578063081812fc146102cd575b600080fd5b61026b610266366004613344565b610699565b60405190151581526020015b60405180910390f35b6102886106eb565b60405161027791906133b1565b61026b6102a33660046133c4565b60106020526000908152604090205460ff1681565b6102cb6102c63660046133f9565b61077d565b005b6102e06102db3660046133c4565b6107db565b6040516001600160a01b039091168152602001610277565b6102cb610306366004613414565b610868565b61031e61031936600461343e565b61097d565b604051610277959493929190613460565b6102cb61033d36600461355e565b610b68565b6103556103503660046133c4565b610d5b565b604051610277999897969594939291906135d5565b6102cb610378366004613646565b610f40565b61026b61038b3660046133f9565b600d6020526000908152604090205460ff1681565b6102cb6103ae366004613682565b610f71565b6103c66103c13660046133c4565b611108565b60405161027791906136ef565b6102cb6103e1366004613646565b611368565b6102cb6103f43660046133f9565b611383565b61040c6104073660046133c4565b6113d2565b6040805195151586526020860194909452928401919091526060830152608082015260a001610277565b6104616104443660046137a8565b8051602081830181018051600c8252928201919093012091525481565b604051908152602001610277565b61026b61047d3660046133f9565b600f6020526000908152604090205460ff1681565b6102cb6104a03660046133f9565b61143b565b6102e06104b33660046133c4565b611492565b6104cb6104c63660046133c4565b611509565b60405161027791906137dd565b6102cb6104e63660046133f9565b611755565b6104616104f93660046133f9565b6117a4565b6102cb61182b565b6105196105143660046133f9565b611891565b604051610277929190613886565b6104616105353660046139a5565b611c46565b6006546001600160a01b03166102e0565b6102cb6105593660046133f9565b611ec5565b610288611f1c565b61026b6105743660046133f9565b600e6020526000908152604090205460ff1681565b61059c61059736600461343e565b611f2b565b604051610277959493929190613a35565b6102cb6105bb366004613a88565b61211f565b6102cb6105ce366004613ac4565b6121e3565b6105e66105e136600461343e565b61221b565b6040516102779493929190613b34565b6102886106043660046133c4565b612400565b6102cb6106173660046133f9565b6124d8565b61062f61062a3660046133c4565b612527565b6040516102779190613b7e565b61064f61064a3660046133c4565b612769565b604051610277959493929190613c1c565b61026b61066e366004613c78565b612976565b6102cb6106813660046133f9565b6129a4565b6102cb610694366004613682565b612a6f565b60006001600160e01b031982166380ac58cd60e01b14806106ca57506001600160e01b03198216635b5e139f60e01b145b806106e557506301ffc9a760e01b6001600160e01b03198316145b92915050565b6060600080546106fa90613cab565b80601f016020809104026020016040519081016040528092919081815260200182805461072690613cab565b80156107735780601f1061074857610100808354040283529160200191610773565b820191906000526020600020905b81548152906001019060200180831161075657829003601f168201915b5050505050905090565b6001600160a01b0381166000818152600f6020908152604091829020805460ff1916600190811790915591519182527fa22803015003e478db82b05d4db1035b46a4d6b761c972dd97ffe2f7aab57a6791015b60405180910390a250565b60006107e682612c37565b61084c5760405162461bcd60e51b815260206004820152602c60248201527f4552433732313a20617070726f76656420717565727920666f72206e6f6e657860448201526b34b9ba32b73a103a37b5b2b760a11b60648201526084015b60405180910390fd5b506000908152600460205260409020546001600160a01b031690565b600061087382611492565b9050806001600160a01b0316836001600160a01b0316036108e05760405162461bcd60e51b815260206004820152602160248201527f4552433732313a20617070726f76616c20746f2063757272656e74206f776e656044820152603960f91b6064820152608401610843565b336001600160a01b03821614806108fc57506108fc8133612976565b61096e5760405162461bcd60e51b815260206004820152603860248201527f4552433732313a20617070726f76652063616c6c6572206973206e6f74206f7760448201527f6e6572206e6f7220617070726f76656420666f7220616c6c00000000000000006064820152608401610843565b6109788383612c56565b505050565b6009602052816000526040600020818154811061099957600080fd5b9060005260206000209060050201600091509150508060000180546109bd90613cab565b80601f01602080910402602001604051908101604052809291908181526020018280546109e990613cab565b8015610a365780601f10610a0b57610100808354040283529160200191610a36565b820191906000526020600020905b815481529060010190602001808311610a1957829003601f168201915b505050505090806001015490806002018054610a5190613cab565b80601f0160208091040260200160405190810160405280929190818152602001828054610a7d90613cab565b8015610aca5780601f10610a9f57610100808354040283529160200191610aca565b820191906000526020600020905b815481529060010190602001808311610aad57829003601f168201915b505050505090806003018054610adf90613cab565b80601f0160208091040260200160405190810160405280929190818152602001828054610b0b90613cab565b8015610b585780601f10610b2d57610100808354040283529160200191610b58565b820191906000526020600020905b815481529060010190602001808311610b3b57829003601f168201915b5050505050908060040154905085565b336000908152600e602052604090205460ff16610bb85760405162461bcd60e51b815260206004820152600e60248201526d2737ba1030903b32b934b334b2b960911b6044820152606401610843565b610bc184612c37565b610bdd5760405162461bcd60e51b815260040161084390613ce5565b60008381526010602052604090205460ff16610c2b5760405162461bcd60e51b815260206004820152600d60248201526c24b73b30b634b210383937b7b360991b6044820152606401610843565b6000848152600a60209081526040808320815160a08101835242815282518084018452601381527220baba3437b934bd32b2102b32b934b334b2b960691b81860152818501908152928101879052600160608201819052608082018790528254808201845592865293909420845160059092020190815590519091820190610cb39082613d5e565b5060408201516002820190610cc89082613d5e565b50606082015160038201805460ff191691151591909117905560808201516004820190610cf59082613d5e565b5050506000848152600860205260408120600701805491610d1583613e34565b9190505550837f0c8e684926c7e18cf07d3820604963ec457c39e8229ce87eb4ea2168888b1110600184604051610d4d929190613e4d565b60405180910390a250505050565b600860205260009081526040902080548190610d7690613cab565b80601f0160208091040260200160405190810160405280929190818152602001828054610da290613cab565b8015610def5780601f10610dc457610100808354040283529160200191610def565b820191906000526020600020905b815481529060010190602001808311610dd257829003601f168201915b505050505090806001018054610e0490613cab565b80601f0160208091040260200160405190810160405280929190818152602001828054610e3090613cab565b8015610e7d5780601f10610e5257610100808354040283529160200191610e7d565b820191906000526020600020905b815481529060010190602001808311610e6057829003601f168201915b505050505090806002018054610e9290613cab565b80601f0160208091040260200160405190810160405280929190818152602001828054610ebe90613cab565b8015610f0b5780601f10610ee057610100808354040283529160200191610f0b565b820191906000526020600020905b815481529060010190602001808311610eee57829003601f168201915b505050600384015460048501546005860154600687015460078801546008909801549697939660ff9093169550909350919089565b610f4a3382612cc4565b610f665760405162461bcd60e51b815260040161084390613e68565b610978838383612d86565b336000908152600f602052604090205460ff16610fc95760405162461bcd60e51b81526020600482015260166024820152752737ba10309039b2b93b34b1b290383937bb34b232b960511b6044820152606401610843565b610fd283612c37565b610fee5760405162461bcd60e51b815260040161084390613ce5565b6000838152600b60209081526040808320815160808101835286815280840186905242818401528251808401909352601b83527f417574686f72697a656420536572766963652050726f7669646572000000000083850152606081019290925280546001810182559084529190922082516004909202019081906110729082613d5e565b50602082015160018201906110879082613d5e565b5060408201516002820155606082015160038201906110a69082613d5e565b50505060008381526008602081905260408220018054916110c683613e34565b9190505550827f25bae929cf036d5bc79ba64d512af9713fa0c1b003ba0a68256dac2dec135a85836040516110fb91906133b1565b60405180910390a2505050565b606061111382612c37565b61112f5760405162461bcd60e51b815260040161084390613ce5565b6000828152600a6020908152604080832080548251818502810185019093528083529193909284015b8282101561135d57838290600052602060002090600502016040518060a00160405290816000820154815260200160018201805461119590613cab565b80601f01602080910402602001604051908101604052809291908181526020018280546111c190613cab565b801561120e5780601f106111e35761010080835404028352916020019161120e565b820191906000526020600020905b8154815290600101906020018083116111f157829003601f168201915b5050505050815260200160028201805461122790613cab565b80601f016020809104026020016040519081016040528092919081815260200182805461125390613cab565b80156112a05780601f10611275576101008083540402835291602001916112a0565b820191906000526020600020905b81548152906001019060200180831161128357829003601f168201915b5050509183525050600382015460ff16151560208201526004820180546040909201916112cc90613cab565b80601f01602080910402602001604051908101604052809291908181526020018280546112f890613cab565b80156113455780601f1061131a57610100808354040283529160200191611345565b820191906000526020600020905b81548152906001019060200180831161132857829003601f168201915b50505050508152505081526020019060010190611158565b505050509050919050565b610978838383604051806020016040528060008152506121e3565b6001600160a01b0381166000818152600f60209081526040808320805460ff19169055519182527fa22803015003e478db82b05d4db1035b46a4d6b761c972dd97ffe2f7aab57a6791016107d0565b60008060008060006113e386612c37565b6113ff5760405162461bcd60e51b815260040161084390613ce5565b505050600092835250506008602081905260409091206004810154600582015460068301546007840154939094015460ff909216949093929190565b6001600160a01b0381166000818152600d6020908152604091829020805460ff1916600190811790915591519182527f3aee4c1869f43f072aa4cf36e7fdc75c4943d6a03fb8abfb771510a83979d02691016107d0565b6000818152600260205260408120546001600160a01b0316806106e55760405162461bcd60e51b815260206004820152602960248201527f4552433732313a206f776e657220717565727920666f72206e6f6e657869737460448201526832b73a103a37b5b2b760b91b6064820152608401610843565b606061151482612c37565b6115305760405162461bcd60e51b815260040161084390613ce5565b600082815260096020908152604080832080548251818502810185019093528083529193909284015b8282101561135d57838290600052602060002090600502016040518060a001604052908160008201805461158c90613cab565b80601f01602080910402602001604051908101604052809291908181526020018280546115b890613cab565b80156116055780601f106115da57610100808354040283529160200191611605565b820191906000526020600020905b8154815290600101906020018083116115e857829003601f168201915b505050505081526020016001820154815260200160028201805461162890613cab565b80601f016020809104026020016040519081016040528092919081815260200182805461165490613cab565b80156116a15780601f10611676576101008083540402835291602001916116a1565b820191906000526020600020905b81548152906001019060200180831161168457829003601f168201915b505050505081526020016003820180546116ba90613cab565b80601f01602080910402602001604051908101604052809291908181526020018280546116e690613cab565b80156117335780601f1061170857610100808354040283529160200191611733565b820191906000526020600020905b81548152906001019060200180831161171657829003601f168201915b5050505050815260200160048201548152505081526020019060010190611559565b6001600160a01b0381166000818152600d60209081526040808320805460ff19169055519182527f3aee4c1869f43f072aa4cf36e7fdc75c4943d6a03fb8abfb771510a83979d02691016107d0565b60006001600160a01b03821661180f5760405162461bcd60e51b815260206004820152602a60248201527f4552433732313a2062616c616e636520717565727920666f7220746865207a65604482015269726f206164647265737360b01b6064820152608401610843565b506001600160a01b031660009081526003602052604090205490565b6006546001600160a01b031633146118855760405162461bcd60e51b815260206004820181905260248201527f4f776e61626c653a2063616c6c6572206973206e6f7420746865206f776e65726044820152606401610843565b61188f6000612f26565b565b606080600061189f846117a4565b90508067ffffffffffffffff8111156118ba576118ba6134b2565b6040519080825280602002602001820160405280156118e3578160200160208202803683370190505b5092508067ffffffffffffffff8111156118ff576118ff6134b2565b60405190808252806020026020018201604052801561198457816020015b61197160405180610120016040528060608152602001606081526020016060815260200160008152602001600015158152602001600080191681526020016000815260200160008152602001600081525090565b81526020019060019003908161191d5790505b5091506000805b600754811015611c3e5761199e81612c37565b80156119c35750856001600160a01b03166119b882611492565b6001600160a01b0316145b15611c2c57808583815181106119db576119db613eb9565b6020026020010181815250506008600082815260200190815260200160002060405180610120016040529081600082018054611a1690613cab565b80601f0160208091040260200160405190810160405280929190818152602001828054611a4290613cab565b8015611a8f5780601f10611a6457610100808354040283529160200191611a8f565b820191906000526020600020905b815481529060010190602001808311611a7257829003601f168201915b50505050508152602001600182018054611aa890613cab565b80601f0160208091040260200160405190810160405280929190818152602001828054611ad490613cab565b8015611b215780601f10611af657610100808354040283529160200191611b21565b820191906000526020600020905b815481529060010190602001808311611b0457829003601f168201915b50505050508152602001600282018054611b3a90613cab565b80601f0160208091040260200160405190810160405280929190818152602001828054611b6690613cab565b8015611bb35780601f10611b8857610100808354040283529160200191611bb3565b820191906000526020600020905b815481529060010190602001808311611b9657829003601f168201915b505050918352505060038201546020820152600482015460ff16151560408201526005820154606082015260068201546080820152600782015460a082015260089091015460c0909101528451859084908110611c1257611c12613eb9565b60200260200101819052508180611c2890613e34565b9250505b80611c3681613e34565b91505061198b565b505050915091565b336000908152600d602052604081205460ff16611c9a5760405162461bcd60e51b81526020600482015260126024820152712737ba10309036b0b73ab330b1ba3ab932b960711b6044820152606401610843565b600c85604051611caa9190613ecf565b908152602001604051809103902054600014611d085760405162461bcd60e51b815260206004820152601a60248201527f42696379636c6520616c726561647920726567697374657265640000000000006044820152606401610843565b81611d455760405162461bcd60e51b815260206004820152600d60248201526c24b73b30b634b210383937b7b360991b6044820152606401610843565b6007805460009182611d5683613e34565b919050559050611d663382612f78565b604080516101208101825287815260208082018890528183018790524260608301526001608083015260a08201869052600060c0830181905260e08301819052610100830181905284815260089091529190912081518190611dc89082613d5e565b5060208201516001820190611ddd9082613d5e565b5060408201516002820190611df29082613d5e565b5060608201516003820155608082015160048201805460ff191691151591909117905560a0820151600582015560c0820151600682015560e08201516007820155610100909101516008909101556040518190600c90611e53908990613ecf565b9081526040805191829003602090810183209390935560008681526010909352909120805460ff1916600117905581907fdc603203de9a4676ed0c03e4cc7ec31193aeb888070553a39b5196a1996905de90611eb29089908990613eeb565b60405180910390a290505b949350505050565b6001600160a01b0381166000818152600e6020908152604091829020805460ff1916600190811790915591519182527ff35a493fee6302d9c74fb93734b2dd231a714ecbbcce5c0becacf2bf1c01779f91016107d0565b6060600180546106fa90613cab565b600a6020528160005260406000208181548110611f4757600080fd5b906000526020600020906005020160009150915050806000015490806001018054611f7190613cab565b80601f0160208091040260200160405190810160405280929190818152602001828054611f9d90613cab565b8015611fea5780601f10611fbf57610100808354040283529160200191611fea565b820191906000526020600020905b815481529060010190602001808311611fcd57829003601f168201915b505050505090806002018054611fff90613cab565b80601f016020809104026020016040519081016040528092919081815260200182805461202b90613cab565b80156120785780601f1061204d57610100808354040283529160200191612078565b820191906000526020600020905b81548152906001019060200180831161205b57829003601f168201915b5050506003840154600485018054949560ff90921694919350915061209c90613cab565b80601f01602080910402602001604051908101604052809291908181526020018280546120c890613cab565b80156121155780601f106120ea57610100808354040283529160200191612115565b820191906000526020600020905b8154815290600101906020018083116120f857829003601f168201915b5050505050905085565b336001600160a01b038316036121775760405162461bcd60e51b815260206004820152601960248201527f4552433732313a20617070726f766520746f2063616c6c6572000000000000006044820152606401610843565b3360008181526005602090815260408083206001600160a01b03871680855290835292819020805460ff191686151590811790915590519081529192917f17307eab39ab6107e8899845ad3d59bd9653f200f220920489ca2b5937696c31910160405180910390a35050565b6121ed3383612cc4565b6122095760405162461bcd60e51b815260040161084390613e68565b61221584848484612f96565b50505050565b600b602052816000526040600020818154811061223757600080fd5b90600052602060002090600402016000915091505080600001805461225b90613cab565b80601f016020809104026020016040519081016040528092919081815260200182805461228790613cab565b80156122d45780601f106122a9576101008083540402835291602001916122d4565b820191906000526020600020905b8154815290600101906020018083116122b757829003601f168201915b5050505050908060010180546122e990613cab565b80601f016020809104026020016040519081016040528092919081815260200182805461231590613cab565b80156123625780601f1061233757610100808354040283529160200191612362565b820191906000526020600020905b81548152906001019060200180831161234557829003601f168201915b50505050509080600201549080600301805461237d90613cab565b80601f01602080910402602001604051908101604052809291908181526020018280546123a990613cab565b80156123f65780601f106123cb576101008083540402835291602001916123f6565b820191906000526020600020905b8154815290600101906020018083116123d957829003601f168201915b5050505050905084565b606061240b82612c37565b61246f5760405162461bcd60e51b815260206004820152602f60248201527f4552433732314d657461646174613a2055524920717565727920666f72206e6f60448201526e3732bc34b9ba32b73a103a37b5b2b760891b6064820152608401610843565b600061248660408051602081019091526000815290565b905060008151116124a657604051806020016040528060008152506124d1565b806124b084612fc9565b6040516020016124c1929190613f19565b6040516020818303038152906040525b9392505050565b6001600160a01b0381166000818152600e60209081526040808320805460ff19169055519182527ff35a493fee6302d9c74fb93734b2dd231a714ecbbcce5c0becacf2bf1c01779f91016107d0565b606061253282612c37565b61254e5760405162461bcd60e51b815260040161084390613ce5565b6000828152600b6020908152604080832080548251818502810185019093528083529193909284015b8282101561135d57838290600052602060002090600402016040518060800160405290816000820180546125aa90613cab565b80601f01602080910402602001604051908101604052809291908181526020018280546125d690613cab565b80156126235780601f106125f857610100808354040283529160200191612623565b820191906000526020600020905b81548152906001019060200180831161260657829003601f168201915b5050505050815260200160018201805461263c90613cab565b80601f016020809104026020016040519081016040528092919081815260200182805461266890613cab565b80156126b55780601f1061268a576101008083540402835291602001916126b5565b820191906000526020600020905b81548152906001019060200180831161269857829003601f168201915b50505050508152602001600282015481526020016003820180546126d890613cab565b80601f016020809104026020016040519081016040528092919081815260200182805461270490613cab565b80156127515780601f1061272657610100808354040283529160200191612751565b820191906000526020600020905b81548152906001019060200180831161273457829003601f168201915b50505050508152505081526020019060010190612577565b606080606060008061277a86612c37565b6127965760405162461bcd60e51b815260040161084390613ce5565b600086815260086020526040902060038101548190600182019060028301906127be8b611492565b8480546127ca90613cab565b80601f01602080910402602001604051908101604052809291908181526020018280546127f690613cab565b80156128435780601f1061281857610100808354040283529160200191612843565b820191906000526020600020905b81548152906001019060200180831161282657829003601f168201915b5050505050945083805461285690613cab565b80601f016020809104026020016040519081016040528092919081815260200182805461288290613cab565b80156128cf5780601f106128a4576101008083540402835291602001916128cf565b820191906000526020600020905b8154815290600101906020018083116128b257829003601f168201915b505050505093508280546128e290613cab565b80601f016020809104026020016040519081016040528092919081815260200182805461290e90613cab565b801561295b5780601f106129305761010080835404028352916020019161295b565b820191906000526020600020905b81548152906001019060200180831161293e57829003601f168201915b50505050509250955095509550955095505091939590929450565b6001600160a01b03918216600090815260056020908152604080832093909416825291909152205460ff1690565b6006546001600160a01b031633146129fe5760405162461bcd60e51b815260206004820181905260248201527f4f776e61626c653a2063616c6c6572206973206e6f7420746865206f776e65726044820152606401610843565b6001600160a01b038116612a635760405162461bcd60e51b815260206004820152602660248201527f4f776e61626c653a206e6577206f776e657220697320746865207a65726f206160448201526564647265737360d01b6064820152608401610843565b612a6c81612f26565b50565b336000908152600f602052604090205460ff16612ac75760405162461bcd60e51b81526020600482015260166024820152752737ba10309039b2b93b34b1b290383937bb34b232b960511b6044820152606401610843565b612ad083612c37565b612aec5760405162461bcd60e51b815260040161084390613ce5565b6000828242604051602001612b0393929190613f48565b60408051601f19818403018152828252805160209182012060008881526009835283812060a086018552888652428685015284518086018652601b81527f417574686f72697a656420536572766963652050726f766964657200000000008186015294860194909452606085018790526080850182905283546001810185559381529190912083519194506005909202909101908190612ba39082613d5e565b506020820151600182015560408201516002820190612bc29082613d5e565b5060608201516003820190612bd79082613d5e565b50608091909101516004909101556000848152600860205260408120600601805491612c0283613e34565b9190505550837f954f92e94c88e62cabdb985aa7089efccb2aa184f05d63a67273e70168d7a62784604051610d4d91906133b1565b6000818152600260205260408120546001600160a01b031615156106e5565b600081815260046020526040902080546001600160a01b0319166001600160a01b0384169081179091558190612c8b82611492565b6001600160a01b03167f8c5be1e5ebec7d5bd14f71427d1e84f3dd0314c0f7b2291e5b200ac8c7c3b92560405160405180910390a45050565b6000612ccf82612c37565b612d305760405162461bcd60e51b815260206004820152602c60248201527f4552433732313a206f70657261746f7220717565727920666f72206e6f6e657860448201526b34b9ba32b73a103a37b5b2b760a11b6064820152608401610843565b6000612d3b83611492565b9050806001600160a01b0316846001600160a01b03161480612d765750836001600160a01b0316612d6b846107db565b6001600160a01b0316145b80611ebd5750611ebd8185612976565b826001600160a01b0316612d9982611492565b6001600160a01b031614612e015760405162461bcd60e51b815260206004820152602960248201527f4552433732313a207472616e73666572206f6620746f6b656e2074686174206960448201526839903737ba1037bbb760b91b6064820152608401610843565b6001600160a01b038216612e635760405162461bcd60e51b8152602060048201526024808201527f4552433732313a207472616e7366657220746f20746865207a65726f206164646044820152637265737360e01b6064820152608401610843565b612e6e600082612c56565b6001600160a01b0383166000908152600360205260408120805460019290612e97908490613f7d565b90915550506001600160a01b0382166000908152600360205260408120805460019290612ec5908490613f90565b909155505060008181526002602052604080822080546001600160a01b0319166001600160a01b0386811691821790925591518493918716917fddf252ad1be2c89b69c2b068fc378daa952ba7f163c4a11628f55a4df523b3ef91a4505050565b600680546001600160a01b038381166001600160a01b0319831681179093556040519116919082907f8be0079c531659141344cd1fd0a4f28419497f9722a3daafe3b4186f6b6457e090600090a35050565b612f928282604051806020016040528060008152506130ca565b5050565b612fa1848484612d86565b612fad848484846130fd565b6122155760405162461bcd60e51b815260040161084390613fa3565b606081600003612ff05750506040805180820190915260018152600360fc1b602082015290565b8160005b811561301a578061300481613e34565b91506130139050600a8361400b565b9150612ff4565b60008167ffffffffffffffff811115613035576130356134b2565b6040519080825280601f01601f19166020018201604052801561305f576020820181803683370190505b5090505b8415611ebd57613074600183613f7d565b9150613081600a8661401f565b61308c906030613f90565b60f81b8183815181106130a1576130a1613eb9565b60200101906001600160f81b031916908160001a9053506130c3600a8661400b565b9450613063565b6130d483836131fb565b6130e160008484846130fd565b6109785760405162461bcd60e51b815260040161084390613fa3565b60006001600160a01b0384163b156131f357604051630a85bd0160e11b81526001600160a01b0385169063150b7a0290613141903390899088908890600401614033565b6020604051808303816000875af192505050801561317c575060408051601f3d908101601f1916820190925261317991810190614070565b60015b6131d9573d8080156131aa576040519150601f19603f3d011682016040523d82523d6000602084013e6131af565b606091505b5080516000036131d15760405162461bcd60e51b815260040161084390613fa3565b805181602001fd5b6001600160e01b031916630a85bd0160e11b149050611ebd565b506001611ebd565b6001600160a01b0382166132515760405162461bcd60e51b815260206004820181905260248201527f4552433732313a206d696e7420746f20746865207a65726f20616464726573736044820152606401610843565b61325a81612c37565b156132a75760405162461bcd60e51b815260206004820152601c60248201527f4552433732313a20746f6b656e20616c7265616479206d696e746564000000006044820152606401610843565b6001600160a01b03821660009081526003602052604081208054600192906132d0908490613f90565b909155505060008181526002602052604080822080546001600160a01b0319166001600160a01b03861690811790915590518392907fddf252ad1be2c89b69c2b068fc378daa952ba7f163c4a11628f55a4df523b3ef908290a45050565b6001600160e01b031981168114612a6c57600080fd5b60006020828403121561335657600080fd5b81356124d18161332e565b60005b8381101561337c578181015183820152602001613364565b50506000910152565b6000815180845261339d816020860160208601613361565b601f01601f19169290920160200192915050565b6020815260006124d16020830184613385565b6000602082840312156133d657600080fd5b5035919050565b80356001600160a01b03811681146133f457600080fd5b919050565b60006020828403121561340b57600080fd5b6124d1826133dd565b6000806040838503121561342757600080fd5b613430836133dd565b946020939093013593505050565b6000806040838503121561345157600080fd5b50508035926020909101359150565b60a08152600061347360a0830188613385565b866020840152828103604084015261348b8187613385565b9050828103606084015261349f8186613385565b9150508260808301529695505050505050565b634e487b7160e01b600052604160045260246000fd5b600067ffffffffffffffff808411156134e3576134e36134b2565b604051601f8501601f19908116603f0116810190828211818310171561350b5761350b6134b2565b8160405280935085815286868601111561352457600080fd5b858560208301376000602087830101525050509392505050565b600082601f83011261354f57600080fd5b6124d1838335602085016134c8565b6000806000806080858703121561357457600080fd5b8435935060208501359250604085013567ffffffffffffffff8082111561359a57600080fd5b6135a68883890161353e565b935060608701359150808211156135bc57600080fd5b506135c98782880161353e565b91505092959194509250565b60006101208083526135e98184018d613385565b905082810360208401526135fd818c613385565b90508281036040840152613611818b613385565b60608401999099525050941515608086015260a085019390935260c084019190915260e0830152610100909101529392505050565b60008060006060848603121561365b57600080fd5b613664846133dd565b9250613672602085016133dd565b9150604084013590509250925092565b60008060006060848603121561369757600080fd5b83359250602084013567ffffffffffffffff808211156136b657600080fd5b6136c28783880161353e565b935060408601359150808211156136d857600080fd5b506136e58682870161353e565b9150509250925092565b60006020808301818452808551808352604092508286019150828160051b87010184880160005b8381101561379a57603f19898403018552815160a08151855288820151818a87015261374482870182613385565b915050878201518582038987015261375c8282613385565b91505060608083015115158187015250608080830151925085820381870152506137868183613385565b968901969450505090860190600101613716565b509098975050505050505050565b6000602082840312156137ba57600080fd5b813567ffffffffffffffff8111156137d157600080fd5b611ebd8482850161353e565b60006020808301818452808551808352604092508286019150828160051b87010184880160005b8381101561379a57603f19898403018552815160a0815181865261382a82870182613385565b9150508882015189860152878201518582038987015261384a8282613385565b915050606080830151868303828801526138648382613385565b6080948501519790940196909652505094870194925090860190600101613804565b6040808252835182820181905260009190606090818501906020808901865b838110156138c1578151855293820193908201906001016138a5565b50508683038188015287518084528184019250600581901b8401820189830160005b8381101561399457601f198784030186528151610120815181865261390a82870182613385565b91505086820151858203888701526139228282613385565b9150508a8201518582038c87015261393a8282613385565b915050898201518a8601526080808301516139588288018215159052565b505060a0828101519086015260c0808301519086015260e0808301519086015261010091820151919094015294840194908401906001016138e3565b50909b9a5050505050505050505050565b600080600080608085870312156139bb57600080fd5b843567ffffffffffffffff808211156139d357600080fd5b6139df8883890161353e565b955060208701359150808211156139f557600080fd5b613a018883890161353e565b94506040870135915080821115613a1757600080fd5b50613a248782880161353e565b949793965093946060013593505050565b85815260a060208201526000613a4e60a0830187613385565b8281036040840152613a608187613385565b905084151560608401528281036080840152613a7c8185613385565b98975050505050505050565b60008060408385031215613a9b57600080fd5b613aa4836133dd565b915060208301358015158114613ab957600080fd5b809150509250929050565b60008060008060808587031215613ada57600080fd5b613ae3856133dd565b9350613af1602086016133dd565b925060408501359150606085013567ffffffffffffffff811115613b1457600080fd5b8501601f81018713613b2557600080fd5b6135c9878235602084016134c8565b608081526000613b476080830187613385565b8281036020840152613b598187613385565b90508460408401528281036060840152613b738185613385565b979650505050505050565b60006020808301818452808551808352604092508286019150828160051b87010184880160005b8381101561379a57603f19898403018552815160808151818652613bcb82870182613385565b915050888201518582038a870152613be38282613385565b915050878201518886015260608083015192508582038187015250613c088183613385565b968901969450505090860190600101613ba5565b60a081526000613c2f60a0830188613385565b8281036020840152613c418188613385565b90508281036040840152613c558187613385565b606084019590955250506001600160a01b03919091166080909101529392505050565b60008060408385031215613c8b57600080fd5b613c94836133dd565b9150613ca2602084016133dd565b90509250929050565b600181811c90821680613cbf57607f821691505b602082108103613cdf57634e487b7160e01b600052602260045260246000fd5b50919050565b602080825260119082015270109a58de58db19481b9bdd08199bdd5b99607a1b604082015260600190565b601f82111561097857600081815260208120601f850160051c81016020861015613d375750805b601f850160051c820191505b81811015613d5657828155600101613d43565b505050505050565b815167ffffffffffffffff811115613d7857613d786134b2565b613d8c81613d868454613cab565b84613d10565b602080601f831160018114613dc15760008415613da95750858301515b600019600386901b1c1916600185901b178555613d56565b600085815260208120601f198616915b82811015613df057888601518255948401946001909101908401613dd1565b5085821015613e0e5787850151600019600388901b60f8161c191681555b5050505050600190811b01905550565b634e487b7160e01b600052601160045260246000fd5b600060018201613e4657613e46613e1e565b5060010190565b8215158152604060208201526000611ebd6040830184613385565b60208082526031908201527f4552433732313a207472616e736665722063616c6c6572206973206e6f74206f6040820152701ddb995c881b9bdc88185c1c1c9bdd9959607a1b606082015260800190565b634e487b7160e01b600052603260045260246000fd5b60008251613ee1818460208701613361565b9190910192915050565b604081526000613efe6040830185613385565b8281036020840152613f108185613385565b95945050505050565b60008351613f2b818460208801613361565b835190830190613f3f818360208801613361565b01949350505050565b60008451613f5a818460208901613361565b845190830190613f6e818360208901613361565b01928352505060200192915050565b818103818111156106e5576106e5613e1e565b808201808211156106e5576106e5613e1e565b60208082526032908201527f4552433732313a207472616e7366657220746f206e6f6e20455243373231526560408201527131b2b4bb32b91034b6b83632b6b2b73a32b960711b606082015260800190565b634e487b7160e01b600052601260045260246000fd5b60008261401a5761401a613ff5565b500490565b60008261402e5761402e613ff5565b500690565b6001600160a01b038581168252841660208201526040810183905260806060820181905260009061406690830184613385565b9695505050505050565b60006020828403121561408257600080fd5b81516124d18161332e56fea26469706673582212207e51b4d5e8dd557b13761cceaf7ead57a24fa8072db4992a4246200895642b3e64736f6c63430008130033",
  "linkReferences": {},
  "deployedLinkReferences": {}
}